{
    "contractName": "functions",
    "abi": [
        {
            "constant": true,
            "inputs": [],
            "name": "getBalance",
            "outputs": [
                {
                    "name": "",
                    "type": "uint256"
                }
            ],
            "payable": false,
            "stateMutability": "view",
            "type": "function"
        },
        {
            "constant": false,
            "inputs": [
                {
                    "name": "amt",
                    "type": "uint256"
                }
            ],
            "name": "withdraw2",
            "outputs": [],
            "payable": false,
            "stateMutability": "nonpayable",
            "type": "function"
        },
        {
            "constant": true,
            "inputs": [],
            "name": "owner",
            "outputs": [
                {
                    "name": "",
                    "type": "address"
                }
            ],
            "payable": false,
            "stateMutability": "view",
            "type": "function"
        },
        {
            "constant": false,
            "inputs": [],
            "name": "deposit",
            "outputs": [],
            "payable": true,
            "stateMutability": "payable",
            "type": "function"
        },
        {
            "constant": false,
            "inputs": [
                {
                    "name": "to",
                    "type": "address"
                },
                {
                    "name": "amt",
                    "type": "uint256"
                }
            ],
            "name": "withdraw",
            "outputs": [],
            "payable": true,
            "stateMutability": "payable",
            "type": "function"
        },
        {
            "inputs": [],
            "payable": false,
            "stateMutability": "nonpayable",
            "type": "constructor"
        }
    ],
    "bytecode": "608060405260018054600160a060020a031916735b38da6a701c568545dcfcb03fcb875f56beddc417905534801561003657600080fd5b506000805561035e8061004a6000396000f3fe60806040526004361061006c5763ffffffff7c010000000000000000000000000000000000000000000000000000000060003504166312065fe0811461007157806334273351146100985780638da5cb5b146100c4578063d0e30db0146100f5578063f3fef3a3146100fd575b600080fd5b34801561007d57600080fd5b50610086610129565b60408051918252519081900360200190f35b3480156100a457600080fd5b506100c2600480360360208110156100bb57600080fd5b503561012f565b005b3480156100d057600080fd5b506100d96101c0565b60408051600160a060020a039092168252519081900360200190f35b6100c26101cf565b6100c26004803603604081101561011357600080fd5b50600160a060020a038135169060200135610277565b60005490565b600154600160a060020a031633146101a857604080517f08c379a000000000000000000000000000000000000000000000000000000000815260206004820152601f60248201527f4f6e6c79206f776e65722063616e207769746864726177206d6f6e6579202100604482015290519081900360640190fd5b6000548111156101b457fe5b60008054919091039055565b600154600160a060020a031681565b600154600160a060020a0316331461026d57604080517f08c379a0000000000000000000000000000000000000000000000000000000008152602060048201526024808201527f4e6f74206f776e6572212120596f752063616e6e6f74206465706f736974206d60448201527f6f6e657900000000000000000000000000000000000000000000000000000000606482015290519081900360840190fd5b6000805434019055565b600154600160a060020a031633146102f057604080517f08c379a000000000000000000000000000000000000000000000000000000000815260206004820152601f60248201527f4f6e6c79206f776e65722063616e207769746864726177206d6f6e6579202100604482015290519081900360640190fd5b600080548290038155604051600160a060020a0384169183156108fc02918491818181858888f1935050505015801561032d573d6000803e3d6000fd5b50505056fea165627a7a72305820dd9021a8892905db23fae0f776d2946324f6cfe8f497a118ec807357010e0ced0029",
    "sourcePath": "d:/MyBooks/BlockChain/Tutorial/06_Error_handling.sol",
    "compiler": {
        "name": "solc",
        "version": "0.5.0+commit.1d4f565a"
    },
    "functionHashes": {
        "deposit()": "d0e30db0",
        "getBalance()": "12065fe0",
        "owner()": "8da5cb5b",
        "withdraw(address,uint256)": "f3fef3a3",
        "withdraw2(uint256)": "34273351"
    },
    "gasEstimates": {
        "creation": {
            "codeDepositCost": "172400",
            "executionCost": "25513",
            "totalCost": "197913"
        },
        "external": {
            "deposit()": "20683",
            "getBalance()": "384",
            "owner()": "581",
            "withdraw(address,uint256)": "infinite",
            "withdraw2(uint256)": "20938"
        }
    }
}