{
    "contractName": "Lottery",
    "abi": [
        {
            "inputs": [],
            "stateMutability": "nonpayable",
            "type": "constructor"
        },
        {
            "inputs": [],
            "name": "getBalance",
            "outputs": [
                {
                    "internalType": "uint256",
                    "name": "",
                    "type": "uint256"
                }
            ],
            "stateMutability": "view",
            "type": "function"
        },
        {
            "inputs": [],
            "name": "manager",
            "outputs": [
                {
                    "internalType": "address",
                    "name": "",
                    "type": "address"
                }
            ],
            "stateMutability": "view",
            "type": "function"
        },
        {
            "inputs": [
                {
                    "internalType": "uint256",
                    "name": "",
                    "type": "uint256"
                }
            ],
            "name": "participants",
            "outputs": [
                {
                    "internalType": "address payable",
                    "name": "",
                    "type": "address"
                }
            ],
            "stateMutability": "view",
            "type": "function"
        },
        {
            "inputs": [],
            "name": "random",
            "outputs": [
                {
                    "internalType": "uint256",
                    "name": "",
                    "type": "uint256"
                }
            ],
            "stateMutability": "view",
            "type": "function"
        },
        {
            "inputs": [],
            "name": "selectWinner",
            "outputs": [],
            "stateMutability": "nonpayable",
            "type": "function"
        },
        {
            "stateMutability": "payable",
            "type": "receive"
        }
    ],
    "bytecode": "608060405234801561001057600080fd5b50600080546001600160a01b031916331790556103c7806100326000396000f3fe60806040526004361061004e5760003560e01c806312065fe0146100b257806333a99e04146100da57806335c1d349146100f1578063481c6a75146101295780635ec01e4d1461014957600080fd5b366100ad5734671bc16d674ec800001461006757600080fd5b6001805480820182556000919091527fb10e2d527612073b26eecdfd717e6a320cf44b4afac2b0732d9fcbe2b7fa0cf60180546001600160a01b03191633908117909155005b600080fd5b3480156100be57600080fd5b506100c7610191565b6040519081526020015b60405180910390f35b3480156100e657600080fd5b506100ef6101ae565b005b3480156100fd57600080fd5b5061011161010c366004610340565b61029c565b6040516001600160a01b0390911681526020016100d1565b34801561013557600080fd5b50600054610111906001600160a01b031681565b34801561015557600080fd5b506001546040805144602080830191909152428284015260608083019490945282518083039094018452608090910190915281519101206100c7565b600080546001600160a01b031633146101a957600080fd5b504790565b6000546001600160a01b031633146101c557600080fd5b600154600311156101d557600080fd5b600154604080514460208083019190915242828401526060808301859052835180840390910181526080909201909252805191012060009182916102199190610359565b90506001818154811061022e5761022e61037b565b6000918252602090912001546001600160a01b03169150816108fc610251610191565b6040518115909202916000818181858888f19350505050158015610279573d6000803e3d6000fd5b506040805160008152602081019182905251610297916001916102c6565b505050565b600181815481106102ac57600080fd5b6000918252602090912001546001600160a01b0316905081565b82805482825590600052602060002090810192821561031b579160200282015b8281111561031b57825182546001600160a01b0319166001600160a01b039091161782556020909201916001909101906102e6565b5061032792915061032b565b5090565b5b80821115610327576000815560010161032c565b60006020828403121561035257600080fd5b5035919050565b60008261037657634e487b7160e01b600052601260045260246000fd5b500690565b634e487b7160e01b600052603260045260246000fdfea264697066735822122009ad50eca2f2574a53ac13edbf354798b9f99dc75e920a426edc07ac20d8f1c564736f6c634300080d0033",
    "sourcePath": "d:/MyBooks/BlockChain/Tutorial/Project Lottery/Lottery.sol",
    "compiler": {
        "name": "solc",
        "version": "0.8.13+commit.abaa5c0e"
    },
    "functionHashes": {
        "getBalance()": "12065fe0",
        "manager()": "481c6a75",
        "participants(uint256)": "35c1d349",
        "random()": "5ec01e4d",
        "selectWinner()": "33a99e04"
    },
    "gasEstimates": {
        "creation": {
            "codeDepositCost": "193400",
            "executionCost": "24473",
            "totalCost": "217873"
        },
        "external": {
            "getBalance()": "2321",
            "manager()": "2381",
            "participants(uint256)": "4636",
            "random()": "2543",
            "selectWinner()": "infinite"
        }
    }
}